:020000040000FA
:0400000005200128AE
:040004000034003490
:08000800352823008C018D0155
:10001000240020308C0061308D002200EF308C00F5
:100020007F308D002100083095006A309900200053
:100030000D096139F2008C1EF2142400E0307218B0
:100040000238F2180438721B0838F21A103892007D
:10005000941736309500210091150B17F001F1012E
:10006000F4018B1683309500090020000B194E28EF
:1000700091193A282400941A42281108200091115D
:10008000F501090085017030840075080139840785
:1000900011088000F50A2000911109000B112000C1
:1000A000833095072100FF308C008D00F40A74081E
:1000B0000B006228622867286C28712876287B2824
:1000C00080288528F7308C0040308B200900FB30D9
:1000D0008C0020308B200900FB308D0010308B20ED
:1000E00009007F308C0008308B200900BF308C0065
:1000F00004308B200900FE308C0002308B20090078
:10010000FD308C0001308B200900F7308D008030ED
:100110008B20F4010900F30071087305031D8D1392
:0A01200070087305031D0C1208009F
:020000040001F9
:02000E00A40943
:02001000FF1CD3
:00000001FF
